:100000000C9462000C948A000C948A000C948A0070
:100010000C948A000C948A000C948A000C948A0038
:100020000C948A000C948A000C948A000C948A0028
:100030000C948A000C948A000C948A000C948A0018
:100040000C9429040C948A000C9499040C94730465
:100050000C948A000C948A000C948A000C948A00F8
:100060000C948A000C948A000000000024002700F1
:100070002A0000000000250028002B0000000000DE
:1000800023002600290004040404040404040202DA
:100090000202020203030303030301020408102007
:1000A0004080010204081020010204081020000012
:1000B0000008000201000003040700000000000027
:1000C0000000CB0411241FBECFEFD8E0DEBFCDBFB0
:1000D00011E0A0E0B1E0EEE2F0E102C005900D9287
:1000E000AA3CB107D9F722E0AAECB1E001C01D9209
:1000F000A838B207E1F710E0C2E6D0E004C02197CB
:10010000FE010E940F08C136D107C9F70E941505EC
:100110000C9415080C940000833081F028F4813091
:1001200099F08230A9F008958730A9F08830C9F09D
:100130008430B1F4809180008F7D03C08091800075
:100140008F7780938000089584B58F7784BD08955C
:1001500084B58F7DFBCF8091B0008F778093B00006
:1001600008958091B0008F7DF9CFCF93DF93282F32
:1001700030E0F901E255FF4F8491F901E656FF4F57
:10018000D491F901EA57FF4FC491CC23A1F081111A
:100190000E948C00EC2FF0E0EE0FFF1FE458FF4FA1
:1001A000A591B491EC91ED2381E090E009F480E019
:1001B000DF91CF91089580E090E0FACF1F93CF9325
:1001C000DF93282F30E0F901E255FF4F8491F901C8
:1001D000E656FF4FD491F901EA57FF4FC491CC2363
:1001E000A9F0162F81110E948C00EC2FF0E0EE0F89
:1001F000FF1FEE58FF4FA591B4918FB7F894EC9183
:10020000111108C0D095DE23DC938FBFDF91CF9111
:100210001F910895DE2BF8CFCF93DF9390E0FC0180
:10022000E656FF4F24918A579F4FFC018491882303
:10023000D1F090E0880F991FFC01E859FF4FA5917C
:10024000B491FC01EE58FF4FC591D491623071F426
:100250009FB7F8943C91822F809583238C93E881FB
:100260002E2B28839FBFDF91CF9108958FB7F894ED
:10027000EC912E2B2C938FBFF6CF3FB7F894809143
:10028000CF019091D001A091D101B091D20126B5BA
:10029000A89B05C02F3F19F00196A11DB11D3FBFBE
:1002A000BA2FA92F982F8827BC01CD01620F711D8D
:1002B000811D911D42E0660F771F881F991F4A9587
:1002C000D1F708958F929F92AF92BF92CF92DF9213
:1002D000EF92FF924B015C010E943D016B017C019A
:1002E0000E943D016C197D098E099F09683E73408B
:1002F00081059105A8F321E0821A9108A108B108AF
:1003000088EEC80E83E0D81EE11CF11C8114910414
:10031000A104B10429F7FF90EF90DF90CF90BF9038
:10032000AF909F908F900895AF92BF92CF92DF923F
:10033000EF92FF920F931F93CF93DF936C017B019A
:100340008B01040F151FEB015E01AE18BF08C0172B
:10035000D10759F06991D601ED91FC910190F0819E
:10036000E02DC6010995892B79F7C501DF91CF9161
:100370001F910F91FF90EF90DF90CF90BF90AF90C3
:100380000895FC01538D448D252F30E0842F90E09B
:10039000821B930B541710F0CF9608950197089580
:1003A000FC01918D828D981761F0A28DAE0FBF2F49
:1003B000B11D5D968C91928D9F5F9F73928F90E09F
:1003C00008958FEF9FEF0895FC01918D828D98170E
:1003D00031F0828DE80FF11D858D90E008958FEF4B
:1003E0009FEF0895FC01918D228D892F90E0805C14
:1003F0009F4F821B91098F739927089583ED91E098
:100400000E94F20121E0892B09F420E0822F089557
:1004100080E090E0892B29F00E94FE0181110C946C
:1004200000000895FC01A48DA80FB92FB11DA35A97
:10043000BF4F2C91848D90E001968F739927848F04
:10044000A689B7892C93A089B1898C918370806427
:100450008C93938D848D981306C00288F389E02DC8
:1004600080818F7D80830895EF92FF920F931F9379
:10047000CF93DF93EC0181E0888F9B8D8C8D981357
:100480001AC0E889F989808185FF15C09FB7F89463
:10049000EE89FF896083E889F989808183708064AF
:1004A00080839FBF81E090E0DF91CF911F910F91FA
:1004B000FF90EF900895F62E0B8D10E00F5F1F4F09
:1004C0000F731127E02E8C8D8E110CC00FB607FC18
:1004D000FACFE889F989808185FFF5CFCE010E94A6
:1004E0001202F1CFEB8DEC0FFD2FF11DE35AFF4F00
:1004F000F0829FB7F8940B8FEA89FB898081806234
:10050000CFCFCF93DF93EC01888D8823B9F0AA89F0
:10051000BB89E889F9898C9185FD03C0808186FDBE
:100520000DC00FB607FCF7CF8C9185FFF2CF80810D
:1005300085FFEDCFCE010E941202E9CFDF91CF916E
:100540000895089590E080E00895CF93DF93EC0143
:1005500060E08E810E94DE0061E08E810E94DE00FC
:1005600060E08E810E94DE008BE891E00197F1F758
:10057000DF91CF910895CF92DF92EF92FF920F9388
:100580001F93CF93DF936C017C0187E0E80EF11C91
:10059000D0E0C0E0062F10E0B8010C2E02C0759527
:1005A00067950A94E2F76170F70181917F010E94DB
:1005B000DE002196C430D10579F7C601DF91CF91D5
:1005C0001F910F91FF90EF90DF90CF900C94A502B8
:1005D000CF92DF92EF92FF920F931F93CF93DF930F
:1005E000EC01F62E642F8C810E94DE008D818F3FFE
:1005F00019F060E00E94DE000F2D10E08F8584FF6F
:1006000025C06E0187E0C80ED11CF12CE12CB80189
:100610000E2C02C0759567950A94E2F76170F60199
:1006200081916F010E94DE00FFEFEF1AFF0A88E060
:10063000E816F10461F7CE01DF91CF911F910F9180
:10064000FF90EF90DF90CF900C94A502B80184E06A
:10065000759567958A95E1F7CE010E94BB026F2DD3
:10066000CE01DF91CF911F910F91FF90EF90DF901E
:10067000CF900C94BB0240E0682F80E792E00C948E
:10068000E802CF93DF93823029F490917F02986043
:1006900090937F02809383021092840280E480937F
:1006A000850280E18093860280E58093870261E085
:1006B000809174020E940C01809175028F3F19F0A5
:1006C00061E00E940C0161E0809176020E940C01C1
:1006D000C0E7D2E09E012057324080917F0284FD26
:1006E0000BC084E090E021962817390744F461E0BC
:1006F0008E810E940C01EECF88E090E0F4CF8BE376
:100700009DE00197F1F760E0809174020E94DE00A5
:1007100060E0809176020E94DE00809175028F3F3A
:1007200019F060E00E94DE0080917F0284FD39C0F4
:1007300063E080E792E00E94BB02CBE4D6E4CE0106
:100740000197F1F763E080E792E00E94BB022197F6
:10075000F1F763E080E792E00E94BB0283E592E05C
:100760000197F1F762E080E792E00E94BB0280917E
:100770007F0280620E943B0384E0809380028CE0D1
:100780000E943B0381E00E943B038BE39FE10197C2
:10079000F1F782E08093810286E0DF91CF910C94A3
:1007A0003B0380620E943B038BE496E40197F1F7E0
:1007B00080917F0280620E943B0383E592E0019773
:1007C000F1F780917F0280620E943B03D0CF90912D
:1007D0008302691710F06FEF690FE62FF0E0E05920
:1007E000FD4F9489890F80680C943B0341E00E947F
:1007F000E80281E090E008950F931F93CF93DF9379
:100800008B0128E0829FC001112480640E943B0379
:10081000E801085F1F4F699180E792E00E94F603AC
:10082000C017D107C1F7DF91CF911F910F910895A4
:10083000FB0101900020E9F73197AF01461B570BF0
:10084000DC01ED91FC910280F381E02D09940C9480
:1008500018041F920F920FB60F9211242F933F93FB
:100860008F939F93AF93BF938091CB019091CC01D5
:10087000A091CD01B091CE013091CA0123E0230FA8
:100880002D3758F50196A11DB11D2093CA01809303
:10089000CB019093CC01A093CD01B093CE01809178
:1008A000CF019091D001A091D101B091D2010196D8
:1008B000A11DB11D8093CF019093D001A093D101D0
:1008C000B093D201BF91AF919F918F913F912F91A2
:1008D0000F900FBE0F901F90189526E8230F0296D9
:1008E000A11DB11DD2CF1F920F920FB60F921124EE
:1008F0002F933F934F935F936F937F938F939F9328
:10090000AF93BF93EF93FF9383ED91E00E941202A8
:10091000FF91EF91BF91AF919F918F917F916F91D7
:100920005F914F913F912F910F900FBE0F901F90AD
:1009300018951F920F920FB60F9211242F938F9339
:100940009F93EF93FF93E091E301F091E4018081A5
:10095000E091E901F091EA0182FD1BC09081809154
:10096000EC018F5F8F732091ED01821741F0E091D0
:10097000EC01F0E0ED52FE4F958F8093EC01FF917A
:10098000EF919F918F912F910F900FBE0F901F901D
:1009900018958081F4CFE3EDF1E01382128288EEA6
:1009A00093E0A0E0B0E084839583A683B7838EE2D2
:1009B00091E09183808385EC90E09587848784EC37
:1009C00090E09787868780EC90E0918B808B81EC1C
:1009D00090E0938B828B82EC90E0958B848B86ECFD
:1009E00090E0978B868B118E128E138E148EE0E71B
:1009F000F2E01382128280E491E09183808387E0A9
:100A000084838FEF858386E0868385E0878384E017
:100A1000808783E0818782E082871386148615862B
:100A20001686178681E00C944103CF93DF93CDB7F0
:100A3000DEB7A1970FB6F894DEBF0FBECDBF789496
:100A400084B5826084BD84B5816084BD85B58260D3
:100A500085BD85B5816085BD80916E008160809384
:100A60006E001092810080918100826080938100ED
:100A700080918100816080938100809180008160FD
:100A8000809380008091B10084608093B100809158
:100A9000B00081608093B00080917A008460809380
:100AA0007A0080917A00826080937A0080917A0047
:100AB000816080937A0080917A00806880937A00C8
:100AC0001092C100E091E301F091E40182E08083A3
:100AD000E091DF01F091E0011082E091E101F091FD
:100AE000E2018FEC80831092EB01E091E701F0913D
:100AF000E80186E08083E091E501F091E6018081E4
:100B000080618083E091E501F091E6018081886059
:100B10008083E091E501F091E60180818068808327
:100B2000E091E501F091E60180818F7D808361E0B5
:100B30008CE00E940C0161E08DE00E940C0161E0FC
:100B400089E00E940C0161E088E00E940C0161E0F4
:100B500087E00E940C0161E086E00E940C0162E0E7
:100B600085E00E940C0162E084E00E940C0162E0DA
:100B700083E00E940C0162E082E00E940C0161E0CF
:100B80008BE00E940C0161E08AE00E940C0161E0B0
:100B90008BE00E94DE0068EC70E080E090E00E9454
:100BA000620182E00E94410368E471E080E792E024
:100BB0000E94270467EC71E080E792E00E9427041E
:100BC0006AE571E080E792E00E94270468EE73E036
:100BD00080E090E00E94620160E271E080E00E94AB
:100BE000FC0368E171E081E00E94FC0360E171E0D8
:100BF00082E00E94FC0368E071E083E00E94FC0355
:100C000060E071E084E00E94FC0360E08FE00E94FD
:100C1000E70360E080E792E00E94F60360ED77E092
:100C200080E090E00E94620160E080E00E94E703C3
:100C30006EE671E080E792E00E94270461E080E0C8
:100C40000E94E7036DE771E080E792E00E942704CD
:100C50003AE0432E512C612C712C85E0282E312C4A
:100C600096E0892E912C28E0A22EB12C61E08BE039
:100C70000E94DE0062E070E080E090E00E9462018D
:100C800061E085E00E940C0161E084E00E940C01BB
:100C900061E083E00E940C0161E082E00E940C01AF
:100CA00061E088E00E94E70364E871E080E792E099
:100CB0000E94270460E08FE00E94E70364E080E781
:100CC00092E00E94F60360E08BE00E94DE0062E0AA
:100CD00070E080E090E00E94620162E085E00E94A6
:100CE0000C0162E084E00E940C0162E083E00E945B
:100CF0000C0162E082E00E940C0161E08AE00E9447
:100D0000DE0062E070E080E090E00E94620184E634
:100D100090E0909329018093280160E089E00E948F
:100D2000DE0061E088E00E94DE0061E087E00E9472
:100D3000DE0061E086E00E94DE0085E00E94B500F2
:100D4000892B31F4E2E3F0E0F0932901E0932801EC
:100D500084E00E94B500892B31F482E090E090930A
:100D600029018093280183E00E94B500892B31F48A
:100D7000E3E0F0E0F0932901E093280185E00E9490
:100D8000B500892B31F481E090E0909329018093A4
:100D9000280161E089E00E94DE0060E088E00E94B6
:100DA000DE0061E087E00E94DE0061E086E00E94F4
:100DB000DE0085E00E94B500892B31F4E3E3F0E02A
:100DC000F0932901E093280184E00E94B500892B6B
:100DD00021F4309229012092280183E00E94B5007D
:100DE000892B21F4909229018092280185E00E94AC
:100DF000B500892B31F484E090E090932901809331
:100E0000280161E089E00E94DE0061E088E00E9444
:100E1000DE0060E087E00E94DE0061E086E00E9484
:100E2000DE0085E00E94B500892B31F4E4E3F0E0B8
:100E3000F0932901E093280184E00E94B500892BFA
:100E400021F4B0922901A092280183E00E94B5000C
:100E5000892B31F489E090E0909329018093280157
:100E600085E00E94B500892B31F487E090E09093F3
:100E700029018093280161E089E00E94DE0061E0A1
:100E800088E00E94DE0061E087E00E94DE0060E012
:100E900086E00E94DE0085E00E94B500892B31F4D7
:100EA00085E390E0909329018093280184E00E94DB
:100EB000B500892B21F4109229011092280183E0BA
:100EC0000E94B500892B31F486E390E090932901CC
:100ED0008093280185E00E94B500892B31F487E3D7
:100EE00090E09093290180932801809128019091AE
:100EF0002901843691050CF043C061EB71E083ED6C
:100F000091E00E942704C0902801D09029010D2C67
:100F1000000CEE08FF08F7FE4AC06DE283ED91E099
:100F20000E94340222273327A9012C193D094E09BA
:100F30005F0919A28E010F5D1F4FCA01B901A301FC
:100F400092010E94ED07605DF80162938F01211507
:100F500031054105510589F70115110529F0B80141
:100F600083ED91E00E94180466EC71E083ED91E05E
:100F70000E94180464E170E080E090E00E94620149
:100F800060E08AE00E94DE0062E070E080E090E0D5
:100F90000E94620180E090E0892B09F467CE0E94F4
:100FA000FE01882309F459CE0E94000056CEA70105
:100FB000960119A28E010F5D1F4FCA01B901A3014D
:100FC00092010E94ED07605DF80162938F01211587
:100FD00031054105510589F7BFCFA1E21A2EAA1BA1
:100FE000BB1BFD010DC0AA1FBB1FEE1FFF1FA217D9
:100FF000B307E407F50720F0A21BB30BE40BF50BD6
:10100000661F771F881F991F1A9469F7609570955E
:10101000809590959B01AC01BD01CF010895EE0F25
:0E102000FF1F0590F491E02D0994F894FFCF86
:10102E00000C061F060C000000060C1F0C0600002C
:10103E00040404151F0E0400040E1F1504040400FE
:10104E0000110000110E00006400000000003402C8
:10105E009401C1018102F201D001E40100000000FF
:10106E00F6039401A202A102546F702E20457370F4
:10107E006563696169732020200053697374656D1F
:10108E00617320456D6261726361646F73005546D2
:10109E0053432D43544A20202020202000546563C2
:1010AE006C613A0044697265697461200043696D30
:1010BE00612020202000426169786F2020200045A9
:1010CE00737175657264610053656C6563616F2041
:1010DE00005465636C61207072657373696F6E6125
:0A10EE006461203D20000D0A00009F
:00000001FF
