:020000040000FA
:100000000C945D000C9485000C9485000C94850084
:100010000C9485000C9485000C9485000C9485004C
:100020000C9485000C9485000C9485000C9485003C
:100030000C9485000C9485000C9485000C9485002C
:100040000C94F3030C9485000C9463040C943D040D
:100050000C9485000C9485000C9485000C9485000C
:100060000C9485000C9485000000000024002700FB
:100070002A0000000000250028002B0004040404CE
:100080000404040402020202020203030303030342
:10009000010204081020408001020408102001021F
:1000A00004081020000000080002010000030407FB
:1000B0000000000000000000950411241FBECFEFD7
:1000C000D8E0DEBFCDBF11E0A0E0B1E0E0E9FDE0A7
:1000D00002C005900D92A23BB107D9F722E0A2EB36
:1000E000B1E001C01D92A037B207E1F710E0CDE505
:1000F000D0E004C02197FE010E94C006CC35D10794
:10010000C9F70E94DF040C94C6060C94000090E02E
:10011000FC01EC55FF4F2491FC01E057FF4F349157
:10012000FC01E458FF4FE491EE23C9F0222339F09B
:10013000233001F1A8F4213019F1223029F1F0E047
:10014000EE0FFF1FEE58FF4FA591B4918FB7F894B3
:10015000EC91611126C030953E233C938FBF0895EA
:100160002730A9F02830C9F0243049F78091800069
:100170008F7D03C0809180008F7780938000DFCFD8
:1001800084B58F7784BDDBCF84B58F7DFBCF809125
:10019000B0008F778093B000D2CF8091B0008F7D78
:1001A000F9CF3E2BDACFCF93DF9390E0FC01E057FD
:1001B000FF4F249184589F4FFC0184918823D1F0F4
:1001C00090E0880F991FFC01E859FF4FA591B49169
:1001D000FC01EE58FF4FC591D491623071F49FB786
:1001E000F8943C91822F809583238C93E8812E2B69
:1001F00028839FBFDF91CF9108958FB7F894EC913A
:100200002E2B2C938FBFF6CF3FB7F8948091B70178
:100210009091B801A091B901B091BA0126B5A89BFF
:1002200005C02F3F19F00196A11DB11D3FBFBA2F88
:10023000A92F982F8827BC01CD01620F711D811D48
:10024000911D42E0660F771F881F991F4A95D1F7CD
:1002500008958F929F92AF92BF92CF92DF92EF92CA
:10026000FF924B015C010E9404016B017C010E9422
:1002700004016C197D098E099F09683E7340810550
:100280009105A8F321E0821A9108A108B10888EE2F
:10029000C80E83E0D81EE11CF11C81149104A10456
:1002A000B10429F7FF90EF90DF90CF90BF90AF900F
:1002B0009F908F900895AF92BF92CF92DF92EF926E
:1002C000FF920F931F93CF93DF936C017B018B0100
:1002D000040F151FEB015E01AE18BF08C017D10750
:1002E00059F06991D601ED91FC910190F081E02DDA
:1002F000C6010995892B79F7C501DF91CF911F912F
:100300000F91FF90EF90DF90CF90BF90AF90089546
:10031000FC01538D448D252F30E0842F90E0821B0B
:10032000930B541710F0CF96089501970895FC0190
:10033000918D828D981761F0A28DAE0FBF2FB11DE8
:100340005D968C91928D9F5F9F73928F90E0089540
:100350008FEF9FEF0895FC01918D828D981731F0FA
:10036000828DE80FF11D858D90E008958FEF9FEF4E
:100370000895FC01918D228D892F90E0805C9F4F24
:10038000821B91098F73992708958BEB91E00E944E
:10039000B90121E0892B09F420E0822F089580E043
:1003A00090E0892B29F00E94C50181110C94000076
:1003B0000895FC01A48DA80FB92FB11DA35ABF4FFA
:1003C0002C91848D90E001968F739927848FA68954
:1003D000B7892C93A089B1898C91837080648C93A8
:1003E000938D848D981306C00288F389E02D808157
:1003F0008F7D80830895EF92FF920F931F93CF9389
:10040000DF93EC0181E0888F9B8D8C8D98131AC04F
:10041000E889F989808185FF15C09FB7F894EE8936
:10042000FF896083E889F989808183708064808393
:100430009FBF81E090E0DF91CF911F910F91FF90DE
:10044000EF900895F62E0B8D10E00F5F1F4F0F7386
:100450001127E02E8C8D8E110CC00FB607FCFACF41
:10046000E889F989808185FFF5CFCE010E94D90105
:10047000F1CFEB8DEC0FFD2FF11DE35AFF4FF08212
:100480009FB7F8940B8FEA89FB8980818062CFCF78
:10049000CF93DF93EC01888D8823B9F0AA89BB89BB
:1004A000E889F9898C9185FD03C0808186FD0DC0A6
:1004B0000FB607FCF7CF8C9185FFF2CF808185FFC7
:1004C000EDCFCE010E94D901E9CFDF91CF91089500
:1004D000089590E080E00895CF93DF93EC0160E011
:1004E0008E810E94870061E08E810E94870060E01B
:1004F0008E810E9487008BE891E00197F1F7DF91F0
:10050000CF910895CF92DF92EF92FF920F931F93B6
:10051000CF93DF936C017C0187E0E80EF11CD0E003
:10052000C0E0062F10E0B8010C2E02C0759567954B
:100530000A94E2F76170F70181917F010E948700C0
:100540002196C430D10579F7C601DF91CF911F9173
:100550000F91FF90EF90DF90CF900C946C02CF92B0
:10056000DF92EF92FF920F931F93CF93DF93EC01F3
:10057000F62E642F8C810E9487008D818F3F19F0A9
:1005800060E00E9487000F2D10E08F8584FF25C05A
:100590006E0187E0C80ED11CF12CE12CB8010E2CA5
:1005A00002C0759567950A94E2F76170F601819132
:1005B0006F010E948700FFEFEF1AFF0A88E0E8163C
:1005C000F10461F7CE01DF91CF911F910F91FF9060
:1005D000EF90DF90CF900C946C02B80184E0759599
:1005E00067958A95E1F7CE010E9482026F2DCE01B8
:1005F000DF91CF911F910F91FF90EF90DF90CF90FF
:100600000C94820240E0682F88E592E00C94AF02DF
:10061000CF93DF93823029F4909167029860909392
:10062000670280936B0210926C0280E480936D02EB
:1006300080E180936E0280E580936F0261E080919B
:100640005C020E94D30080915D028F3F19F061E04F
:100650000E94D30061E080915E020E94D300C8E551
:10066000D2E09E01285532408091670284FD0BC084
:1006700084E090E021962817390744F461E08E81E8
:100680000E94D300EECF88E090E0F4CF8BE39DE0B2
:100690000197F1F760E080915C020E94870060E0C2
:1006A00080915E020E94870080915D028F3F19F069
:1006B00060E00E9487008091670284FD39C063E09A
:1006C00088E592E00E948202CBE4D6E4CE01019755
:1006D000F1F763E088E592E00E9482022197F1F74A
:1006E00063E088E592E00E94820283E592E0019750
:1006F000F1F762E088E592E00E9482028091670251
:1007000080620E94020384E0809368028CE00E9471
:10071000020381E00E9402038BE39FE10197F1F75E
:1007200082E08093690286E0DF91CF910C9402030E
:1007300080620E9402038BE496E40197F1F78091B6
:10074000670280620E94020383E592E00197F1F75D
:100750008091670280620E940203D0CF90916B0269
:10076000691710F06FEF690FE62FF0E0E85AFD4FC0
:100770009489890F80680C94020341E00E94AF02C3
:1007800081E090E008950F931F93CF93DF938B0147
:1007900028E0829FC001112480640E940203E801C6
:1007A000085F1F4F699188E592E00E94BD03C01762
:1007B000D107C1F7DF91CF911F910F910895FB01F0
:1007C00001900020E9F73197AF01461B570BDC0180
:1007D000ED91FC910280F381E02D0994BC0188E544
:1007E00092E00C94DF031F920F920FB60F92112428
:1007F0002F933F938F939F93AF93BF938091B301B8
:100800009091B401A091B501B091B6013091B201BF
:1008100023E0230F2D3758F50196A11DB11D20931C
:10082000B2018093B3019093B401A093B501B0934A
:10083000B6018091B7019091B801A091B901B09132
:10084000BA010196A11DB11D8093B7019093B80123
:10085000A093B901B093BA01BF91AF919F918F91CD
:100860003F912F910F900FBE0F901F90189526E883
:10087000230F0296A11DB11DD2CF1F920F920FB66A
:100880000F9211242F933F934F935F936F937F9316
:100890008F939F93AF93BF93EF93FF938BEB91E075
:1008A0000E94D901FF91EF91BF91AF919F918F91DC
:1008B0007F916F915F914F913F912F910F900FBE5C
:1008C0000F901F9018951F920F920FB60F92112440
:1008D0002F938F939F93EF93FF93E091CB01F09130
:1008E000CC018081E091D101F091D20182FD1BC049
:1008F00090818091D4018F5F8F732091D5018217F1
:1009000041F0E091D401F0E0E554FE4F958F8093E3
:10091000D401FF91EF919F918F912F910F900FBE76
:100920000F901F9018958081F4CFEBEBF1E01382CC
:10093000128288EE93E0A0E0B0E084839583A683E2
:10094000B7838CE291E09183808385EC90E095877A
:10095000848784EC90E09787868780EC90E0918B89
:10096000808B81EC90E0938B828B82EC90E0958B76
:10097000848B86EC90E0978B868B118E128E138E73
:10098000148EE8E5F2E0138212828EE391E0918307
:10099000808387E084838FEF858386E0868385E08C
:1009A000878384E0808783E0818782E08287138663
:1009B000148615861686178681E00C940803CF935B
:1009C000DF93CDB7DEB7A1970FB6F894DEBF0FBEA9
:1009D000CDBF789484B5826084BD84B5816084BDC8
:1009E00085B5826085BD85B5816085BD80916E00CD
:1009F000816080936E0010928100809181008260FE
:100A0000809381008091810081608093810080913A
:100A100080008160809380008091B1008460809329
:100A2000B1008091B00081608093B00080917A0025
:100A3000846080937A0080917A00826080937A004B
:100A400080917A00816080937A0080917A0080683A
:100A500080937A001092C100E091CB01F091CC011B
:100A600082E08083E091C701F091C8011082E0919B
:100A7000C901F091CA018FEC80831092D301E091FB
:100A8000CF01F091D00186E08083E091CD01F0911B
:100A9000CE01808180618083E091CD01F091CE0113
:100AA000808188608083E091CD01F091CE018081CA
:100AB00080688083E091CD01F091CE0180818F7DAF
:100AC000808361E08CE00E94D30061E08DE00E94B1
:100AD000D30061E089E00E94D30061E088E00E94D9
:100AE000D30061E087E00E94D30061E086E00E94CD
:100AF000D30062E085E00E94D30062E084E00E94BF
:100B0000D30062E083E00E94D30062E082E00E94B2
:100B1000D30061E08BE00E94D30061E08AE00E9494
:100B2000D30061E08BE00E94870068EC70E080E019
:100B300090E00E94290182E00E94080386E491E08F
:100B40000E94EE0383E891E00E94EE0388E591E0C5
:100B50000E94EE0368EE73E080E090E00E942901BD
:100B600060E271E080E00E94C30368E171E081E02F
:100B70000E94C30360E171E082E00E94C30368E069
:100B800071E083E00E94C30360E071E084E00E94B2
:100B9000C30360E08FE00E94AE0360E088E592E06E
:100BA0000E94BD0360ED77E080E090E00E942901A3
:100BB00060E080E00E94AE038CE691E00E94EE03CC
:100BC00061E080E00E94AE038BE791E00E94EE03BB
:100BD00081E4382E9AE0892E912CA12CB12C20E0B2
:100BE000C22E20E0D22E30927C0080917A00806468
:100BF00080937A0080917A0086FDFCCF0091780086
:100C0000109179002801012E000C6608770877FE04
:100C10004DC06DE28BEB91E00E94FB012227332750
:100C2000A901241935094609570919A2CE0181964F
:100C30007C01CA01B901A50194010E949E06605D74
:100C4000F70162937F01211531054105510589F7AF
:100C5000E114F10429F0B7018BEB91E00E94DF036E
:100C600062E871E08BEB91E00E94DF0361E088E0D5
:100C70000E94AE03043611057CF585E891E00E94E0
:100C8000EE0360E08FE00E94AE0364E088E592E04E
:100C90000E94BD03C114D10409F4A5CF0E94C5016F
:100CA000882309F4A0CF0E9400009DCFA3019201E8
:100CB00019A2CE0181967C01CA01B901A501940156
:100CC0000E949E06605DF70162937F012115310548
:100CD0004105510589F7BCCF083C110554F48EE855
:100CE00091E00E94EE0360E08FE00E94AE0361E0BD
:100CF000CDCF0039F1E01F0754F487E991E00E945D
:100D0000EE0360E08FE00E94AE0362E0BFCF0835E3
:100D100082E0180754F480EA91E00E94EE0360E05C
:100D20008FE00E94AE0363E0B1CF003213400CF0BD
:100D3000B1CF89EA91E00E94EE03ACCFA1E21A2E76
:100D4000AA1BBB1BFD010DC0AA1FBB1FEE1FFF1F6F
:100D5000A217B307E407F50720F0A21BB30BE40BBF
:100D6000F50B661F771F881F991F1A9469F7609506
:100D70007095809590959B01AC01BD01CF010895C0
:100D8000EE0FFF1F0590F491E02D0994F894FFCF2A
:100D9000000C061F060C000000060C1F0C060000CD
:100DA000040404151F0E0400040E1F15040404009F
:100DB00000110000110E000000000000FB015B01AB
:100DC00088014802B9019701AB0100000000BD0392
:100DD0005B0169026802546F702E20457370656371
:100DE000696169732020200053697374656D6173B4
:100DF00020456D6261726361646F730055465343B1
:100E00002D43544A202020202020005465636C612B
:100E10003A000D0A004469726569746120004369F3
:100E20006D612020202000426169786F2020200021
:100E300045737175657264610053656C6563616FBC
:020E4000200090
:107E0000112484B714BE81FFF0D085E080938100F7
:107E100082E08093C00088E18093C10086E0809377
:107E2000C20080E18093C4008EE0C9D0259A86E02C
:107E300020E33CEF91E0309385002093840096BBD3
:107E4000B09BFECF1D9AA8958150A9F7CC24DD24C4
:107E500088248394B5E0AB2EA1E19A2EF3E0BF2EE7
:107E6000A2D0813461F49FD0082FAFD0023811F036
:107E7000013811F484E001C083E08DD089C08234E0
:107E800011F484E103C0853419F485E0A6D080C0E4
:107E9000853579F488D0E82EFF2485D0082F10E0AE
:107EA000102F00270E291F29000F111F8ED06801E7
:107EB0006FC0863521F484E090D080E0DECF843638
:107EC00009F040C070D06FD0082F6DD080E0C81688
:107ED00080E7D80618F4F601B7BEE895C0E0D1E017
:107EE00062D089930C17E1F7F0E0CF16F0E7DF06D8
:107EF00018F0F601B7BEE89568D007B600FCFDCFD4
:107F0000A601A0E0B1E02C9130E011968C91119780
:107F100090E0982F8827822B932B1296FA010C0160
:107F200087BEE89511244E5F5F4FF1E0A038BF0790
:107F300051F7F601A7BEE89507B600FCFDCF97BE46
:107F4000E89526C08437B1F42ED02DD0F82E2BD052
:107F50003CD0F601EF2C8F010F5F1F4F84911BD097
:107F6000EA94F801C1F70894C11CD11CFA94CF0C13
:107F7000D11C0EC0853739F428D08EE10CD085E9AC
:107F80000AD08FE07ACF813511F488E018D01DD067
:107F900080E101D065CF982F8091C00085FFFCCF94
:107FA0009093C60008958091C00087FFFCCF809118
:107FB000C00084FD01C0A8958091C6000895E0E648
:107FC000F0E098E1908380830895EDDF803219F02E
:107FD00088E0F5DFFFCF84E1DECF1F93182FE3DFCA
:107FE0001150E9F7F2DF1F91089580E0E8DFEE27F6
:047FF000FF270994CA
:027FFE00040479
:00000001FF
