:100000000C9462000C947F000C947F000C947F0091
:100010000C947F000C947F000C947F000C940A04D5
:100020000C947F000C947F000C947F000C947F0054
:100030000C947F000C947F000C947F000C947F0044
:100040000C9466040C947F000C947F000C947F0049
:100050000C947F000C947F000C947F000C947F0024
:100060000C947F000C947F00000000002400270007
:100070002A000000000023002600290000000008DC
:10008000000201000003040700000000000000005F
:10009000010204081020408001020408102001021F
:1000A0000408102000000000250028002B00040494
:1000B0000404040404040202020202020303030310
:1000C0000303020011241FBECFEFD8E0DEBFCDBF77
:1000D00011E0A0E0B1E0E0E5FEE002C005900D9285
:1000E000A238B107D9F721E0A2E8B1E001C01D9222
:1000F000AC39B207E1F70E94B0040C9426070C94C7
:100100000000833081F028F4813099F08230A9F02A
:1001100008958730A9F08830C9F08430B1F4809117
:1001200080008F7D03C0809180008F778093800056
:10013000089584B58F7784BD089584B58F7DFBCFF6
:100140008091B0008F778093B00008958091B000C7
:100150008F7DF9CFCF93DF939091000189130BC06E
:10016000E2ECF0E0E4919FEF90930001E13059F16F
:1001700038F1E23071F1282F30E0F901E458FF4FF7
:100180008491F901E057FF4FD491F901E255FF4FF7
:10019000C491CC2391F081110E948100EC2FF0E0FA
:1001A000EE0FFF1FEC55FF4FA591B4918FB7F89458
:1001B000EC91D095DE23DC938FBFDF91CF91089532
:1001C00010926E00D8CF90916F009D7F90936F003A
:1001D000D2CF909170009D7F9093700091E09093AA
:1001E000B0009091B100987F94609093B10010920C
:1001F000B300C1CFCF93DF93282F30E0F901E4584B
:10020000FF4F8491F901E057FF4FD491F901E25576
:10021000FF4FC491CC23A1F081110E948100EC2FEB
:10022000F0E0EE0FFF1FEE58FF4FA591B491EC9157
:10023000ED2381E090E009F480E0DF91CF91089513
:1002400080E090E0FACFCF93DF9390E0FC01E0579D
:10025000FF4F249182559F4FFC0184918823D1F058
:1002600090E0880F991FFC01E859FF4FA591B491C8
:10027000FC01EC55FF4FC591D491623071F49FB7EA
:10028000F8943C91822F809583238C93E8812E2BC8
:1002900028839FBFDF91CF9108958FB7F894EC9199
:1002A0002E2B2C938FBFF6CF4F925F926F927F923F
:1002B0008F929F92AF92BF92CF92DF92EF92FF9276
:1002C0000F931F93CF93DF9300D000D01F92CDB731
:1002D000DEB78C012A013B01809100018830C9F012
:1002E0008F3F09F47FC00F900F900F900F900F90E9
:1002F000DF91CF911F910F91FF90EF90DF90CF9002
:10030000BF90AF909F908F907F906F905F904F9035
:100310000895E2ECF0E084918D8387FDE4CF61E005
:1003200088E00E9423018D81882321F09D819230F5
:1003300009F05CC14801B12CA12C60E072E18AE7B0
:1003400090E0A50198010E94D90629833A834B8346
:100350005C8369017A0181E0C81AD108E108F108DB
:100360009FEFC916D104E104F10409F00CF413C1A4
:1003700060E472E48FE090E0A50198010E94D90644
:1003800069017A0181E0C81AD108E108F1089D816C
:10039000923009F098C08FEFC816D104E104F1043F
:1003A00009F00CF4DDC160E970ED83E090E0A50197
:1003B00098010E94D90669017A0191E0C91AD10811
:1003C000E108F1088FEFC816D104E104F10411F03F
:1003D0000CF0A3C183E09091B100987F892B8093AA
:1003E000B100E1C088E080930001E2ECF0E094917C
:1003F0009D839F3F09F477CF913029F158F09230D7
:1004000009F43FC08D8187FD6ECF61E088E00E94D6
:1004100023018CCF14BC15BC84B5826084BD85B526
:10042000816085BDE6EBF0E0E491F0E0EE0FFF1FA8
:10043000EC55FF4F85919491E8E9F0E0E491E09369
:100440008F011D826CCF10928000109281008091EC
:100450008100886080938100809181008160809319
:100460008100E6EBF0E0E491F0E0EE0FFF1FEC55C9
:10047000FF4F85919491E8E9F0E0E491E0938E01DB
:100480004ECF1092B0001092B1008091B000826007
:100490008093B0008091B10081608093B100E6EB61
:1004A000F0E0E491F0E0EE0FFF1FEC55FF4F859177
:1004B000949190938D0180938C01E8E9F0E0E491B0
:1004C000E0938B012CCF9FEFC916D104E104F10416
:1004D00009F00CF489C068E478EE81E090E0A501B1
:1004E00098010E94D90669017A0181E0C81AD108F1
:1004F000E108F1089D81992309F428C19FEFC916ED
:10050000D104E104F10409F00CF41EC162E17AE7C0
:1005100080E090E0A50194010E94D90669017A016A
:1005200081E0C81AD108E108F1089D81992309F4F6
:10053000EBC08FEFC816D104E104F10411F008F00C
:10054000BFC086E048CF64E274EF80E090E0A50190
:1005500094010E94D90669017A0181E0C81AD10884
:10056000E108F10885E09FEFC916D104E104F10428
:1005700009F008F430CF62E17AE780E090E0A5016D
:1005800094010E94D90669017A0191E0C91AD10843
:10059000E108F108CECF81E09D8191111CCF95B586
:1005A000987F892B85BD2FEF3FEFA901411451049E
:1005B0006104710409F043C09D81913009F45EC06B
:1005C000923009F46DC091118ECEC7BC2093980172
:1005D0003093990140939A0150939B0180916E0052
:1005E000826080936E007FCE82E0D6CFB12CA12CAA
:1005F00060E072E18AE790E0A50198010E94D906C7
:1006000069017A0181E0C81AD108E108F108C11432
:10061000D10491E0E906F10404F591E08D81813087
:1006200011F680918100887F892B809381002FEFC4
:100630003FEFA9014114510461047104F9F0D8019C
:10064000AA0FBB1FA30192010E94F80628EE33E017
:1006500040E050E00E94B706AFCF68E478EE81E05A
:1006600090E0A50198010E94D90669017A0181E014
:10067000C81AD108E108F10893E0D0CFD0928900E0
:10068000C092880020939401309395014093960185
:100690005093970180916F00826080936F0023CE0A
:1006A000C092B30020939001309391014093920146
:1006B000509393018091700082608093700013CEFC
:1006C000C980DA80EB80FC809AE0F594E794D794B7
:1006D000C7949A95D1F791E0C91AD108E108F108B9
:1006E00087E079CEC980DA80EB80FC808AE0F594DF
:1006F000E794D794C7948A95D1F791E0C91AD108A5
:10070000E108F10885E04BCF8FEFC816D104E10472
:10071000F10409F038F784E042CF68E478EE81E034
:1007200090E0A50198010E94D90669017A0191E043
:10073000C91AD108E108F1088FEFC816D104E10405
:10074000F10411F00CF0FFCE84E045CE8FEFC81617
:10075000D104E104F10411F00CF0D8CE83E01FCFF6
:1007600082E039CE3FB7F89480918701909188015B
:10077000A0918901B0918A0126B5A89B05C02F3FA1
:1007800019F00196A11DB11D3FBFBA2FA92F982FB7
:100790008827BC01CD01620F711D811D911D42E0B2
:1007A000660F771F881F991F4A95D1F708958F927A
:1007B0009F92AF92BF92CF92DF92EF92FF926B0126
:1007C0007C010E94B2034B015C01C114D104E1041D
:1007D000F104B9F00E94B203681979098A099B09EA
:1007E000683E73408105910580F321E0C21AD1086B
:1007F000E108F10888EE880E83E0981EA11CB11C68
:10080000E4CFFF90EF90DF90CF90BF90AF909F909C
:100810008F9008951F920F920FB60F9211242F936D
:100820003F934F935F936F937F938F939F93AF9378
:10083000BF93EF93FF938091900190919101A091CC
:100840009201B0919301892B8A2B8B2BD1F190913E
:100850008B01E0918C01F0918D018081892780834B
:100860008091900190919101A0919201B09193019A
:10087000181619061A061B069CF480919001909197
:100880009101A0919201B09193010197A109B10941
:100890008093900190939101A0939201B093930162
:1008A000FF91EF91BF91AF919F918F917F916F9148
:1008B0005F914F913F912F910F900FBE0F901F901E
:1008C0001895809100010E94AA00EACF1F920F9212
:1008D0000FB60F9211242F933F938F939F93AF9353
:1008E000BF938091830190918401A0918501B09183
:1008F00086013091820123E0230F2D3758F50196B0
:10090000A11DB11D209382018093830190938401E6
:10091000A0938501B0938601809187019091880111
:10092000A0918901B0918A010196A11DB11D80930A
:10093000870190938801A0938901B0938A01BF91A8
:10094000AF919F918F913F912F910F900FBE0F907C
:100950001F90189526E8230F0296A11DB11DD2CF36
:10096000789484B5826084BD84B5816084BD85B58A
:10097000826085BD85B5816085BD80916E00816096
:1009800080936E001092810080918100826080933C
:10099000810080918100816080938100809180003E
:1009A0008160809380008091B10084608093B10069
:1009B0008091B00081608093B00080917A00846063
:1009C00080937A0080917A00826080937A0080918F
:1009D0007A00816080937A0080917A0080688093A9
:1009E0007A001092C10062E087E00E94230162E079
:1009F00083E00E94230108EE13E020E0C22E20E0F5
:100A0000D22E87E00E94FA00892B81F5C1E6D1E061
:100A100091E4E92E91E0F92E69917991C8010E9443
:100A2000A3064B01770FAA08BB08B501A401F70183
:100A3000819191917F010E945401C501B4010E94EE
:100A4000AA0526E636E646EA5FE30E940E060E9405
:100A50007205072E000C880B990B0E94D70388E0C3
:100A60000E94AA00F1E0C138DF07B1F683E00E94DE
:100A7000FA00892B81F5C1E2D1E081E0E82E81E026
:100A8000F82E69917991C8010E94A3064B01770F56
:100A9000AA08BB08B501A401F701819191917F01DA
:100AA0000E945401C501B4010E94AA0526E636E65B
:100AB00046EA5FE30E940E060E947205072E000CB4
:100AC000880B990B0E94D70388E00E94AA00F1E0EE
:100AD000C134DF07B1F6C114D10409F492CF0E94EA
:100AE00000008FCF0E9479056894B1110C9408061C
:100AF00008950E94ED0588F09F5798F0B92F992727
:100B0000B751B0F0E1F0660F771F881F991F1AF0F8
:100B1000BA95C9F714C0B13091F00E940706B1E050
:100B200008950C940706672F782F8827B85F39F04F
:100B3000B93FCCF3869577956795B395D9F73EF491
:100B400090958095709561957F4F8F4F9F4F089539
:100B5000E89409C097FB3EF4909580957095619557
:100B60007F4F8F4F9F4F9923A9F0F92F96E9BB270D
:100B70009395F695879577956795B795F111F8CF89
:100B8000FAF4BB0F11F460FF1BC06F5F7F4F8F4FF4
:100B90009F4F16C0882311F096E911C0772321F0EA
:100BA0009EE8872F762F05C0662371F096E8862F82
:100BB00070E060E02AF09A95660F771F881FDAF7D9
:100BC000880F9695879597F9089557FD9058440F8B
:100BD000551F59F05F3F71F04795880F97FB991F9C
:100BE00061F09F3F79F08795089512161306140659
:100BF000551FF2CF4695F1DF08C0161617061806E6
:100C0000991FF1CF86957105610508940895E894C0
:100C1000BB2766277727CB0197F908950E94210605
:100C20000C9492060E94840638F00E948B0620F0F5
:100C3000952311F00C947B060C94810611240C94DE
:100C400008060E94E50570F3959FC1F3950F50E0EB
:100C5000551F629FF001729FBB27F00DB11D639F6E
:100C6000AA27F00DB11DAA1F649F6627B00DA11D14
:100C7000661F829F2227B00DA11D621F739FB00DBA
:100C8000A11D621F839FA00D611D221F749F33272A
:100C9000A00D611D231F849F600D211D822F762FC3
:100CA0006A2F11249F5750409AF0F1F088234AF0A0
:100CB000EE0FFF1FBB1F661F771F881F915050400C
:100CC000A9F79E3F510580F00C947B060C94080612
:100CD0005F3FE4F3983ED4F3869577956795B79593
:100CE000F795E7959F5FC1F7FE2B880F911D9695AD
:100CF000879597F9089597F99F6780E870E060E01D
:100D000008959FEF80EC089500240A9416161706A4
:100D100018060906089500240A94121613061406EC
:100D200005060895092E0394000C11F4882352F04F
:100D3000BB0F40F4BF2B11F460FF04C06F5F7F4F07
:100D40008F4F9F4F089597FB072E16F4009407D0FE
:100D500077FD09D00E94030707FC05D03EF490956B
:100D600081959F4F0895709561957F4F0895A1E2F9
:100D70001A2EAA1BBB1BFD010DC0AA1FBB1FEE1F15
:100D8000FF1FA217B307E407F50720F0A21BB30B60
:100D9000E40BF50B661F771F881F991F1A9469F7DC
:100DA00060957095809590959B01AC01BD01CF0138
:100DB0000895052E97FB1EF400940E94F00657FD3F
:100DC00007D00E94B70607FC03D04EF40C94F0063F
:100DD00050954095309521953F4F4F4F5F4F089567
:100DE00090958095709561957F4F8F4F9F4F089597
:100DF0000E941707A59F900DB49F900DA49F800D92
:100E0000911D11240895AA1BBB1B51E107C0AA1F05
:100E1000BB1FA617B70710F0A61BB70B881F991F9B
:100E20005A95A9F780959095BC01CD010895A29F90
:100E3000B001B39FC001A39F700D811D1124911DAE
:100E4000B29F700D811D1124911D0895F894FFCF5C
:100E5000FF170470031003BA021003700310030B92
:100E6000020000170470031003BA0210037003108D
:100E70000302000400040002000400040002000257
:100E8000000100020004000400020004000400024B
:100E90000020062006C8052006EA0A4D0AA908E037
:100EA000062D0900002D092D092D09A9082D08B8C6
:100EB000070400040004000400040004000400040B
:100EC0000002000400040004000200040004000208
:020ED000000020
:00000001FF
