:100000000C9462000C948A000C948A000C948A0070
:100010000C948A000C948A000C948A000C948A0038
:100020000C948A000C948A000C948A000C948A0028
:100030000C948A000C948A000C948A000C948A0018
:100040000C94D2040C948A000C9442050C941C0568
:100050000C948A000C948A000C948A000C948A00F8
:100060000C948A000C948A000000000024002700F1
:100070002A0000000000250028002B0000000000DE
:1000800023002600290004040404040404040202DA
:100090000202020203030303030301020408102007
:1000A0004080010204081020010204081020000012
:1000B0000008000201000003040700000000000027
:1000C0000000740511241FBECFEFD8E0DEBFCDBF06
:1000D00011E0A0E0B1E0EAE0F3E102C005900D928A
:1000E000AA3EB107D9F723E0AAEEB1E001C01D9204
:1000F000A731B207E1F710E0C2E6D0E004C02197D3
:10010000FE010E947D09C136D107C9F70E942D0664
:100110000C9483090C94000096E0899FD00111246F
:10012000A057BD4F90967C936E935F9791E0919608
:100130009C939197E091FD02F091FE029091FC0258
:10014000992339F0309751F0811108C08091AC02A9
:100150000994309719F05C968C91FACF0895CF925C
:10016000DF92EF92FF920F931F9396E0899FF00129
:100170001124E057FD4F11A2278D30A12130310508
:1001800051F178F02230310509F451C023303105A6
:1001900009F452C01F910F91FF90EF90DF90CF9024
:1001A00008956623B9F361E070E00E948C002FB7D8
:1001B000F8948091EF019091F001A091F101B0913C
:1001C000F2012FBF8093E8029093E902A093EA0224
:1001D000B093EB02DFCF9FB7F894C090EF01D090BF
:1001E000F001E090F101F090F2019FBF0091E80270
:1001F0001091E9022091EA023091EB02C01AD10A73
:10020000E20AF30A0091FA021091FB0230E020E0CA
:100210000C151D052E053F0550F462E070E01F919E
:100220000F91FF90EF90DF90CF900C948C006111B4
:10023000B1CF63E070E0F3CF70E060E0F0CF8330E7
:1002400081F028F4813099F08230A9F00895873048
:10025000A9F08830C9F08430B1F4809180008F7D9E
:1002600003C0809180008F7780938000089584B5CB
:100270008F7784BD089584B58F7DFBCF8091B000CA
:100280008F778093B00008958091B0008F7DF9CF73
:10029000CF93DF93282F30E0F901E255FF4F84918F
:1002A000F901E656FF4FD491F901EA57FF4FC49187
:1002B000CC23A1F081110E941F01EC2FF0E0EE0F82
:1002C000FF1FE458FF4FA591B491EC91ED2381E01D
:1002D00090E009F480E0DF91CF91089580E090E014
:1002E000FACF1F93CF93DF93282F30E0F901E25527
:1002F000FF4F8491F901E656FF4FD491F901EA5777
:10030000FF4FC491CC23A9F0162F81110E941F0129
:10031000EC2FF0E0EE0FFF1FEE58FF4FA591B491C8
:100320008FB7F894EC91111108C0D095DE23DC93BF
:100330008FBFDF91CF911F910895DE2BF8CFCF9320
:10034000DF9390E0FC01E656FF4F24918A579F4FC0
:10035000FC0184918823C9F090E0880F991FFC016B
:10036000E859FF4FA591B491FC01EE58FF4FC5919C
:10037000D49161110DC09FB7F8948C912095822380
:100380008C938881282328839FBFDF91CF91089584
:10039000623051F49FB7F8943C91822F809583236B
:1003A0008C93E8812E2BEFCF8FB7F894EC912E2B06
:1003B0002C938FBFEACF3FB7F8948091EB019091D7
:1003C000EC01A091ED01B091EE0126B5A89B05C00E
:1003D0002F3F19F00196A11DB11D3FBFBA2FA92FC4
:1003E000982F8827BC01CD01620F711D811D911DC1
:1003F00042E0660F771F881F991F4A95D1F708952D
:100400008F929F92AF92BF92CF92DF92EF92FF9224
:100410004B015C010E94DB016B017C010E94DB014E
:100420006C197D098E099F09683E7340810591050D
:10043000A8F321E0821A9108A108B10888EEC80E3D
:1004400083E0D81EE11CF11C81149104A104B104C5
:1004500029F7FF90EF90DF90CF90BF90AF909F90E3
:100460008F900895862F642F0C949F01862F642F00
:100470000C947101862F0C944801AF92BF92CF92D9
:10048000DF92EF92FF920F931F93CF93DF936C0154
:100490007B018B01040F151FEB015E01AE18BF0835
:1004A000C017D10759F06991D601ED91FC910190E7
:1004B000F081E02DC6010995892B79F7C501DF91FF
:1004C000CF911F910F91FF90EF90DF90CF90BF9051
:1004D000AF900895FC01538D448D252F30E0842F7B
:1004E00090E0821B930B541710F0CF96089501975C
:1004F0000895FC01918D828D981761F0A28DAE0F49
:10050000BF2FB11D5D968C91928D9F5F9F73928FCF
:1005100090E008958FEF9FEF0895FC01918D828DFB
:10052000981731F0828DE80FF11D858D90E00895C8
:100530008FEF9FEF0895FC01918D228D892F90E020
:10054000805C9F4F821B91098F739927089583EFD9
:1005500091E00E949B0221E0892B09F420E0822F88
:10056000089580E090E0892B29F00E94A702811174
:100570000C9400000895FC01A48DA80FB92FB11DA3
:10058000A35ABF4F2C91848D90E001968F739927C9
:10059000848FA689B7892C93A089B1898C918370A7
:1005A00080648C93938D848D981306C00288F389A0
:1005B000E02D80818F7D80830895EF92FF920F93CD
:1005C0001F93CF93DF93EC0181E0888F9B8D8C8DFF
:1005D00098131AC0E889F989808185FF15C09FB7F3
:1005E000F894EE89FF896083E889F98980818370B6
:1005F000806480839FBF81E090E0DF91CF911F9165
:100600000F91FF90EF900895F62E0B8D10E00F5F85
:100610001F4F0F731127E02E8C8D8E110CC00FB65B
:1006200007FCFACFE889F989808185FFF5CFCE01F3
:100630000E94BB02F1CFEB8DEC0FFD2FF11DE35AB1
:10064000FF4FF0829FB7F8940B8FEA89FB89808176
:100650008062CFCFCF93DF93EC01888D8823B9F0F0
:10066000AA89BB89E889F9898C9185FD03C08081BD
:1006700086FD0DC00FB607FCF7CF8C9185FFF2CF3A
:10068000808185FFEDCFCE010E94BB02E9CFDF91D3
:10069000CF910895089590E080E00895CF93DF937F
:1006A000EC0160E08E810E94710161E08E810E9408
:1006B000710160E08E810E9471018BE891E00197E9
:1006C000F1F7DF91CF910895CF92DF92EF92FF92F1
:1006D0000F931F93CF93DF936C017C0187E0E80EAB
:1006E000F11CD0E0C0E0062F10E0B8010C2E02C0D3
:1006F000759567950A94E2F76170F70181917F0122
:100700000E9471012196C430D10579F7C601DF91AD
:10071000CF911F910F91FF90EF90DF90CF900C94AD
:100720004E03CF92DF92EF92FF920F931F93CF93DE
:10073000DF93EC01F62E642F8C810E9471018D8174
:100740008F3F19F060E00E9471010F2D10E08F853E
:1007500084FF25C06E0187E0C80ED11CF12CE12C6E
:10076000B8010E2C02C0759567950A94E2F7617086
:10077000F60181916F010E947101FFEFEF1AFF0AEC
:1007800088E0E816F10461F7CE01DF91CF911F9167
:100790000F91FF90EF90DF90CF900C944E03B80133
:1007A00084E0759567958A95E1F7CE010E94640310
:1007B0006F2DCE01DF91CF911F910F91FF90EF90A0
:1007C000DF90CF900C94640340E0682F8FEF92E0AD
:1007D0000C949103CF93DF93823029F490910E0310
:1007E000986090930E03809312031092130380E499
:1007F0008093140380E18093150380E580931603B2
:1008000061E0809103030E949F01809104038F3F68
:1008100019F061E00E949F0161E0809105030E9450
:100820009F01CFEFD2E09E012F5F324080910E03F7
:1008300084FD0BC084E090E021962817390744F42A
:1008400061E08E810E949F01EECF88E090E0F4CFBE
:100850008BE39DE00197F1F760E0809103030E9434
:10086000710160E0809105030E9471018091040391
:100870008F3F19F060E00E94710180910E0384FDAA
:1008800039C063E08FEF92E00E946403CBE4D6E4CA
:10089000CE010197F1F763E08FEF92E00E946403CD
:1008A0002197F1F763E08FEF92E00E94640383E504
:1008B00092E00197F1F762E08FEF92E00E9464030B
:1008C00080910E0380620E94E40384E080930F0312
:1008D0008CE00E94E40381E00E94E4038BE39FE14B
:1008E0000197F1F782E08093100386E0DF91CF91CA
:1008F0000C94E40380620E94E4038BE496E4019785
:10090000F1F780910E0380620E94E40383E592E098
:100910000197F1F780910E0380620E94E403D0CF2B
:1009200090911203691710F06FEF690FE62FF0E056
:10093000E150FD4F9489890F80680C94E40341E0F5
:100940000E94910381E090E008950F931F93CF934D
:10095000DF938B0128E0829FC001112480640E94F4
:10096000E403E801085F1F4F69918FEF92E00E9456
:100970009F04C017D107C1F7DF91CF911F910F914D
:100980000895FB0101900020E9F73197AF01461B64
:10099000570BDC01ED91FC910280F381E02D09946D
:1009A0000C94C1041F920F920FB60F9211242F9333
:1009B0003F938F939F93AF93BF938091EF0190915B
:1009C000F001A091F101B091F2013091EA0123E030
:1009D000230F2D3758F50196A11DB11D2093EA0173
:1009E0008093EF019093F001A093F101B093F20195
:1009F0008091EB019091EC01A091ED01B091EE019D
:100A00000196A11DB11D8093EB019093EC01A09381
:100A1000ED01B093EE01BF91AF919F918F913F9106
:100A20002F910F900FBE0F901F90189526E8230F5F
:100A30000296A11DB11DD2CF1F920F920FB60F9239
:100A400011242F933F934F935F936F937F938F93D3
:100A50009F93AF93BF93EF93FF9383EF91E00E9437
:100A6000BB02FF91EF91BF91AF919F918F917F91C9
:100A70006F915F914F913F912F910F900FBE0F900B
:100A80001F9018951F920F920FB60F9211242F935B
:100A90008F939F93EF93FF93E0910302F0910402F1
:100AA0008081E0910902F0910A0282FD1BC09081D1
:100AB00080910C028F5F8F7320910D02821741F09D
:100AC000E0910C02F0E0ED50FE4F958F80930C0208
:100AD000FF91EF919F918F912F910F900FBE0F90EB
:100AE0001F9018958081F4CF1092F6011092F501B5
:100AF00088EE93E0A0E0B0E08093F7019093F801D6
:100B0000A093F901B093FA0184E491E09093F40189
:100B10008093F30185EC90E0909300028093FF01B5
:100B200084EC90E0909302028093010280EC90E0CC
:100B3000909304028093030281EC90E0909306026C
:100B40008093050282EC90E0909308028093070264
:100B500086EC90E090930A028093090210920C02B6
:100B600010920D0210920E0210920F0210920203C8
:100B70001092010380E691E0909300038093FF02BE
:100B800087E0809303038FEF8093040386E08093D4
:100B9000050385E08093060384E08093070383E0E8
:100BA0008093080382E08093090310920A03109255
:100BB0000B0310920C0310920D0310920E0381E0B0
:100BC0000E94EA03109292021092960210929502ED
:100BD0001092970286E591E09093910280939002A3
:100BE000ECEAF2E01082148213821582369682E0DB
:100BF000E83EF807B9F78CE291E09093F302809316
:100C0000F20288E291E09093F5028093F40284E08E
:100C10008093F6028093F70280E391E09093F102D3
:100C20008093F0028AE090E09093F9028093F802BA
:100C300084EF91E09093FB028093FA021092FE02FF
:100C40001092FD021092EC021092ED021092EE0250
:100C50001092EF021092FC020895CF93DF93CDB76C
:100C6000DEB7A1970FB6F894DEBF0FBECDBF789464
:100C700084B5826084BD84B5816084BD85B58260A1
:100C800085BD85B5816085BD80916E008160809352
:100C90006E001092810080918100826080938100BB
:100CA00080918100816080938100809180008160CB
:100CB000809380008091B10084608093B100809126
:100CC000B00081608093B00080917A00846080934E
:100CD0007A0080917A00826080937A0080917A0015
:100CE000816080937A0080917A00806880937A0096
:100CF0001092C100E0910302F091040282E080832F
:100D0000E091FF01F09100021082E0910102F09168
:100D100002028FEC808310920B02E0910702F091A7
:100D2000080286E08083E0910502F091060280814E
:100D300080618083E0910502F091060280818860E5
:100D40008083E0910502F0910602808180688083B3
:100D5000E0910502F091060280818F7D808361E041
:100D60008CE00E949F0161E08DE00E949F0161E0A4
:100D70008BE00E949F0161E08AE00E949F0161E098
:100D80008BE00E94710168EC70E080E090E00E94CE
:100D9000000282E00E94EA0368E671E08FEF92E0D1
:100DA0000E94D00465EA71E08FEF92E00E94D004C7
:100DB0006AE771E08FEF92E00E94D00468EE73E082
:100DC00080E090E00E94000260E271E080E00E941A
:100DD000A50468E171E081E00E94A50460E171E092
:100DE00082E00E94A50468E071E083E00E94A5040F
:100DF00060E071E084E00E94A50460E08FE00E9462
:100E0000900460E08FEF92E00E949F0460ED77E035
:100E100080E090E00E94000260E080E00E94900488
:100E20006EE871E08FEF92E00E94D00461E080E014
:100E30000E9490046DE971E08FEF92E00E94D0046F
:100E40003AE0432E512C612C712C22242A94322C0E
:100E500051E450937C0080917A00806480937A0002
:100E600080917A0086FDFCCF009178001091790086
:100E70006801012E000CEE08FF08F7FE9AC06DE233
:100E800083EF91E00E94DD0222273327A9012C196C
:100E90003D094E095F0919A2CE0181967C01CA0164
:100EA000B901A30192010E945B09605DF7016293A1
:100EB0007F01211531054105510589F7E114F10440
:100EC00029F0B70183EF91E00E94C10464EA71E068
:100ED00083EF91E00E94C10461E08BE00E94710108
:100EE00062E070E080E090E00E94000261E088E053
:100EF0000E949004043611050CF071C067EA71E09D
:100F00008FEF92E00E94D00460E08FE00E94900496
:100F100064E08FEF92E00E949F0460E08BE00E940B
:100F2000710162E070E080E090E00E94000261E008
:100F30008AE00E94710162E070E080E090E00E942F
:100F4000000281E08093FC028FB7F8944091EF019A
:100F50005091F0016091F1017091F2018FBF809189
:100F6000EC029091ED02A091EE02B091EF02481BCD
:100F7000590B6A0B7B0B8091F8029091F902B0E05B
:100F8000A0E084179507A607B70708F07DC110E019
:100F90008091F602181708F05CC0E091F202F0911F
:100FA000F302E10FF11D62E080810E949F011F5F4B
:100FB000EFCFA701960119A2CE0181967C01CA014B
:100FC000B901A30192010E945B09605DF701629380
:100FD0007F01211531054105510589F76FCF083C87
:100FE000110564F460EB71E08FEF92E00E94D00491
:100FF00060E08FE00E94900461E08BCF0039F1E067
:101000001F0764F469EB71E08FEF92E00E94D00457
:1010100060E08FE00E94900462E07BCF083552E0F0
:10102000150764F462EC71E08FEF92E00E94D00447
:1010300060E08FE00E94900463E06BCF00321340C9
:101040000CF06BCF6BEC71E08FEF92E00E94D0045C
:1010500064CF912C8091F702981608F063C0E92CB8
:10106000F12CE091F402F091F502EE0DFF1D61E02C
:1010700080810E949F01E091F402F091F502EE0D53
:10108000FF1D60E080810E94710181E090E0A0E09E
:10109000B0E0092C04C0880F991FAA1FBB1F0A9437
:1010A000D2F75C016C01C094D094812C8091F6023F
:1010B000881608F5082D10E0E091F202F091F30295
:1010C000E00FF11F80810E9448010C5F1F4F000F4D
:1010D000111FF801E057FD4F892B41F48081918168
:1010E0008A299B29918380838394E0CF8081918199
:1010F0008C219D21F7CFE091F402F091F502EE0DE5
:10110000FF1D61E080810E9471018091F402909145
:10111000F502E80EF91E60E0F70180810E949F0150
:10112000939498CF90E9E92E92E0F92E8701F80187
:10113000878D90A1892B21F4148E368E258E11A2D5
:101140000A5F1F4FF2E00C3C1F0789F7D12C8091FA
:10115000F602D81608F053C0C12CAD2CB12CAA0C45
:10116000BB1CC50188569D4F5C012091F702C21639
:1011700008F043C0F501608171810C2C02C07695A6
:1011800067950A94E2F7D29E900111242C0D311D2F
:10119000E0E9F2E080E0458D568D2417350709F42B
:1011A00088C08F5F36968A30B1F760FF24C0E0E9CF
:1011B000F2E090E080E0448D411118C0E091F0022F
:1011C000F091F102E20FF31F408156E0589FF001C9
:1011D000599FF00D1124E057FD4F448F368F258F16
:1011E00010A2178E61E00E94AF0005C001963696EE
:1011F0008A30910501F7C394B8CFD394A8CF80E08B
:10120000F70191A19111892FF6E0EF0EF11C0E1557
:101210001F05B1F79FB7F8944091EF015091F0018D
:101220006091F1017091F2019FBF4093EC025093E5
:10123000ED026093EE027093EF02882329F1809112
:10124000B102882309F18091AF029091B002019719
:10125000D9F41091AC0211111AC060E08AE00E942A
:10126000710162E070E080E090E00E94000280E0A6
:1012700090E0892B09F4ECCD0E94A702882309F4A1
:10128000E7CD0E940000E4CD1092FC02E6CF64EDB1
:1012900071E083EF91E00E94D004612F83EF91E031
:1012A0000E94DD0264EA71E083EF91E00E94C104D4
:1012B000D4CF617098CFA1E21A2EAA1BBB1BFD01EF
:1012C0000DC0AA1FBB1FEE1FFF1FA217B307E40725
:1012D000F50720F0A21BB30BE40BF50B661F771F7D
:1012E000881F991F1A9469F760957095809590955D
:1012F0009B01AC01BD01CF010895EE0FFF1F0590CA
:0A130000F491E02D0994F894FFCF5A
:10130A00000C061F060C000000060C1F0C0600004D
:10131A00040404151F0E0400040E1F15040404001F
:10132A0000110000110E0000020304050607080957
:10133A00313233343536373839302A2B2324254095
:10134A0000000000DD023D026A022A039B027902C4
:10135A008D0200000000320236023A02000000004C
:10136A009F043D024B034A03546F702E204573704D
:10137A006563696169732020200053697374656D20
:10138A00617320456D6261726361646F73005546D3
:10139A0053432D43544A20202020202000546563C3
:1013AA006C613A000D0A0044697265697461200033
:1013BA0043696D612020202000426169786F2020F6
:1013CA00200045737175657264610053656C6563CD
:1013DA00616F2000426F74C3A36F207072657373CC
:0A13EA00696F6E61646F3A20000025
:00000001FF
