:100000000C945D000C9485000C9485000C94850084
:100010000C9485000C9485000C9485000C9485004C
:100020000C9485000C9485000C9485000C9485003C
:100030000C9485000C9485000C9485000C9485002C
:100040000C9423020C9485000C9493020C946D0282
:100050000C9485000C9485000C9485000C9485000C
:100060000C9485000C9485000000000024002700FB
:100070002A0000000000250028002B0004040404CE
:100080000404040402020202020203030303030342
:10009000010204081020408001020408102001021F
:1000A00004081020000000080002010000030407FB
:1000B0000000000000000000190511241FBECFEF52
:1000C000D8E0DEBFCDBF11E0A0E0B1E0E6ECFFE09C
:1000D00002C005900D92A231B107D9F721E0A2E14B
:1000E000B1E001C01D92AA3DB207E1F710E0CDE5F5
:1000F000D0E004C02197FE010E949D05CC35D107B8
:10010000C9F70E94C5020C94E1070C94000090E02E
:10011000FC01EC55FF4F2491FC01E057FF4F349157
:10012000FC01E458FF4FE491EE23C9F0222339F09B
:10013000233001F1A8F4213019F1223029F1F0E047
:10014000EE0FFF1FEE58FF4FA591B4918FB7F894B3
:10015000EC91611126C030953E233C938FBF0895EA
:100160002730A9F02830C9F0243049F78091800069
:100170008F7D03C0809180008F7780938000DFCFD8
:1001800084B58F7784BDDBCF84B58F7DFBCF809125
:10019000B0008F778093B000D2CF8091B0008F7D78
:1001A000F9CF3E2BDACFCF93DF9390E0FC01E057FD
:1001B000FF4F249184589F4FFC0184918823D1F0F4
:1001C00090E0880F991FFC01E859FF4FA591B49169
:1001D000FC01EE58FF4FC591D49161110EC09FB73D
:1001E000F8948C91E22FE0958E238C932881E22362
:1001F000E8839FBFDF91CF9108958FB7F894EC917A
:10020000E22BEC938FBFF6CF8E50806480937C00FE
:1002100080917A00806480937A0080917A0086FDD4
:10022000FCCF80917800909179000895AF92BF92B1
:10023000CF92DF92EF92FF920F931F93CF93DF93B2
:100240006C017B018B01040F151FEB015E01AE18E1
:10025000BF08C017D10759F06991D601ED91FC9103
:100260000190F081E02DC6010995892B79F7C50130
:10027000DF91CF911F910F91FF90EF90DF90CF9082
:10028000BF90AF900895FC01538D448D252F30E031
:10029000842F90E0821B930B541710F0CF96089593
:1002A00001970895FC01918D828D981761F0A28DC0
:1002B000AE0FBF2FB11D5D968C91928D9F5F9F7386
:1002C000928F90E008958FEF9FEF0895FC01918D3C
:1002D000828D981731F0828DE80FF11D858D90E0A9
:1002E00008958FEF9FEF0895FC01918D228D892F46
:1002F00090E0805C9F4F821B91098F73992708952E
:1003000082E191E00E94740121E0892B09F420E050
:10031000822F089580E090E0892B29F00E948001CF
:1003200081110C9400000895FC01A48DA80FB92F31
:10033000B11DA35ABF4F2C91848D90E001968F730D
:100340009927848FA689B7892C93A089B1898C912C
:10035000837080648C93938D848D981306C002887B
:10036000F389E02D80818F7D80830895EF92FF9245
:100370000F931F93CF93DF93EC0181E0888F9B8DC8
:100380008C8D98131AC0E889F989808185FF15C082
:100390009FB7F894EE89FF896083E889F9898081A5
:1003A0008370806480839FBF81E090E0DF91CF9174
:1003B0001F910F91FF90EF900895F62E0B8D10E096
:1003C0000F5F1F4F0F731127E02E8C8D8E110CC005
:1003D0000FB607FCFACFE889F989808185FFF5CF50
:1003E000CE010E949401F1CFEB8DEC0FFD2FF11D9A
:1003F000E35AFF4FF0829FB7F8940B8FEA89FB898D
:1004000080818062CFCFCF93DF93EC01888D8823EA
:10041000B9F0AA89BB89E889F9898C9185FD03C067
:10042000808186FD0DC00FB607FCF7CF8C9185FF4C
:10043000F2CF808185FFEDCFCE010E949401E9CFFC
:10044000DF91CF9108951F920F920FB60F92112452
:100450002F933F938F939F93AF93BF938091D60138
:100460009091D701A091D801B091D9013091D501D7
:1004700023E0230F2D3758F50196A11DB11D2093C0
:10048000D5018093D6019093D701A093D801B09362
:10049000D9018091D1019091D201A091D301B09165
:1004A000D4010196A11DB11D8093D1019093D20179
:1004B000A093D301B093D401BF91AF919F918F913D
:1004C0003F912F910F900FBE0F901F90189526E827
:1004D000230F0296A11DB11DD2CF1F920F920FB60E
:1004E0000F9211242F933F934F935F936F937F93BA
:1004F0008F939F93AF93BF93EF93FF9382E191E02C
:100500000E949401FF91EF91BF91AF919F918F91C4
:100510007F916F915F914F913F912F910F900FBEFF
:100520000F901F9018951F920F920FB60F921124E3
:100530002F938F939F93EF93FF93E0912201F0917C
:1005400023018081E0912801F091290182FD1BC0E7
:10055000908180912B018F5F8F7320912C018217E6
:1005600041F0E0912B01F0E0EE5EFE4F958F80931D
:100570002B01FF91EF919F918F912F910F900FBEC3
:100580000F901F9018958081F4CFCF93DF9300D008
:1005900000D0CDB7DEB7789484B5826084BD84B5D1
:1005A000816084BD85B5826085BD85B5816085BD6E
:1005B00080916E00816080936E0010928100809126
:1005C00081008260809381008091810081608093AE
:1005D0008100809180008160809380008091B100D3
:1005E00084608093B1008091B00081608093B000FE
:1005F00080917A00846080937A0080917A00826092
:1006000080937A0080917A00816080937A00809153
:100610007A00806880937A001092C100E0912201F4
:10062000F091230182E08083E0911E01F0911F018F
:100630001082E0912001F09121018FEC80831092D3
:100640002A01E0912601F091270186E08083E09164
:100650002401F0912501808180618083E091240153
:10066000F0912501808188608083E0912401F091E0
:100670002501808180688083E0912401F09125012B
:1006800080818F7D808360E08EE00E94D30060E0F7
:100690008FE00E94D30061E083E00E94D30061E01C
:1006A00084E00E94D30061E085E00E94D3004424EE
:1006B0004A9483E0582E612C712C90E0292E90E012
:1006C000392E01E010E08EE00E9404016C0190934D
:1006D000D0018093CF018FE00E9404017C019093B0
:1006E000CE018093CD0124E630E0D6010E9496052C
:1006F000A30192010E944605CA01B9010E94BF06EA
:100700006093C9017093CA018093CB019093CC018F
:1007100024E630E0D7010E949605A30192010E94D1
:100720004605CA01B9010E94BF066093C5017093D6
:10073000C6018093C7019093C8012FB7F8946091C8
:10074000D6017091D7018091D8019091D9012FBF26
:100750000E94BD062091C1013091C2014091C301A8
:100760005091C4010E94A30520E030E04AE754E420
:100770000E9415066093BD017093BE018093BF0176
:100780009093C0012FE632E143E05BE30E946F07E4
:1007900087FD3CC12091C5013091C6014091C70140
:1007A0005091C8016091C9017091CA018091CB013B
:1007B0009091CC010E94A3056093B9017093BA0196
:1007C0008093BB019093BC012FB7F8946091D60140
:1007D0007091D7018091D8019091D9012FBF0E94CB
:1007E000BD066093C1017093C2018093C3019093D1
:1007F000C401C090B901D090BA01E090BB01F09063
:10080000BC0120E030E040E752E4C701B6010E949D
:10081000740769837A838B839C838090BD01909059
:10082000BE01A090BF01B090C0012DEC3CEC4CEC9F
:100830005DE3C701B6010E947407A50194010E94FF
:1008400074072091B5013091B6014091B7015091E4
:10085000B8010E94A4056093B5017093B60180931E
:10086000B7019093B80120E030E040EA51EC0E94DB
:10087000100687FF0CC080E090E0A0EAB1EC809306
:10088000B5019093B601A093B701B093B801209140
:10089000AF013091B0014091B1015091B201C70157
:1008A000B6010E94A30520E030E0A9010E94740770
:1008B000A50194010E9415064B015C01C092AF0195
:1008C000D092B001E092B101F092B2012091B50155
:1008D0003091B6014091B7015091B80169817A8198
:1008E0008B819C810E94A405A50194010E94A4050E
:1008F0000E948706613571050CF094C07093B401B5
:100900006093B3018091B3019091B4011816190658
:1009100024F01093B4010093B301E090B301F09080
:10092000B4019AE0E916F10464F460E083E00E9407
:10093000870060E084E00E94870060E085E00E941C
:100940008700C7010B97099760F461E083E00E947C
:10095000870060E084E00E94870060E085E00E94FC
:100960008700C7014597099760F460E083E00E9423
:10097000870061E084E00E94870060E085E00E94DB
:100980008700C7014F97099760F461E083E00E94F8
:10099000870061E084E00E94870060E085E00E94BB
:1009A0008700C7018997099760F460E083E00E949F
:1009B000870060E084E00E94870061E085E00E949B
:1009C0008700C701C397099760F461E083E00E9444
:1009D000870060E084E00E94870061E085E00E947B
:1009E0008700C701CD9760E0099728F087E4E816F3
:1009F000F10464F061E083E00E94870061E084E03C
:100A00000E94870061E085E00E9487002114310484
:100A100009F459CE0E948001882309F454CE0E9423
:100A2000000051CE80E590E09093B4018093B30133
:100A300069CFE2E1F1E01382128288EE93E0A0E058
:100A4000B0E084839583A683B78384E091E09183AB
:100A5000808385EC90E09587848784EC90E097878D
:100A6000868780EC90E0918B808B81EC90E0938B7B
:100A7000828B82EC90E0958B848B86EC90E0978B58
:100A8000868B118E128E138E148E0895052E97FB71
:100A90001EF400940E945D0557FD07D00E94650575
:100AA00007FC03D04EF40C945D05509540953095AD
:100AB00021953F4F4F4F5F4F0895909580957095CA
:100AC00061957F4F8F4F9F4F0895A1E21A2EAA1B69
:100AD000BB1BFD010DC0AA1FBB1FEE1FFF1FA217EE
:100AE000B307E407F50720F0A21BB30BE40BF50BEB
:100AF000661F771F881F991F1A9469F76095709574
:100B0000809590959B01AC01BD01CF010895A29FF6
:100B1000B001B39FC001A39F700D811D1124911DD1
:100B2000B29F700D811D1124911D08950E948705AB
:100B3000B7FF0895821B930B0895EE0FFF1F0590DA
:100B4000F491E02D09945058BB27AA270E94BB05B9
:100B50000C9435070E94270738F00E942E0720F0DA
:100B600039F49F3F19F426F40C9424070EF4E09511
:100B7000E7FB0C941E07E92F0E94460758F3BA17AB
:100B8000620773078407950720F079F4A6F50C94A3
:100B900068070EF4E0950B2EBA2FA02D0B01B901BA
:100BA00090010C01CA01A0011124FF27591B99F0E3
:100BB000593F50F4503E68F11A16F040A22F232FEF
:100BC000342F4427585FF3CF469537952795A7953F
:100BD000F0405395C9F77EF41F16BA0B620B730BE6
:100BE000840BBAF09150A1F0FF0FBB1F661F771F57
:100BF000881FC2F70EC0BA0F621F731F841F48F40C
:100C0000879577956795B795F7959E3F08F0B0CF94
:100C10009395880F08F09927EE0F9795879508957B
:100C20000E94FA0608F481E008950E9429060C94B7
:100C300035070E942E0758F00E94270740F029F43C
:100C40005F3F29F00C941E0751110C9469070C9416
:100C500024070E94460768F39923B1F3552391F3C3
:100C6000951B550BBB27AA2762177307840738F01B
:100C70009F5F5F4F220F331F441FAA1FA9F335D078
:100C80000E2E3AF0E0E832D091505040E695001C2C
:100C9000CAF72BD0FE2F29D0660F771F881FBB1FE6
:100CA000261737074807AB07B0E809F0BB0B802DC4
:100CB000BF01FF2793585F4F3AF09E3F510578F0F0
:100CC0000C941E070C9469075F3FE4F3983ED4F33D
:100CD000869577956795B795F7959F5FC9F7880FC4
:100CE000911D9695879597F90895E1E0660F771F16
:100CF000881FBB1F621773078407BA0720F0621BA7
:100D0000730B840BBA0BEE1F88F7E09508950E94D1
:100D10008E066894B1110C94690708950E944E07DD
:100D200088F09F5798F0B92F9927B751B0F0E1F0AC
:100D3000660F771F881F991F1AF0BA95C9F714C05C
:100D4000B13091F00E946807B1E008950C946807F3
:100D5000672F782F8827B85F39F0B93FCCF3869595
:100D600077956795B395D9F73EF4909580957095F2
:100D700061957F4F8F4F9F4F0895E89409C097FB6F
:100D80003EF490958095709561957F4F8F4F9F4F62
:100D90009923A9F0F92F96E9BB279395F6958795A6
:100DA00077956795B795F111F8CFFAF4BB0F11F469
:100DB00060FF1BC06F5F7F4F8F4F9F4F16C0882310
:100DC00011F096E911C0772321F09EE8872F762F46
:100DD00005C0662371F096E8862F70E060E02AF087
:100DE0009A95660F771F881FDAF7880F9695879573
:100DF00097F90895990F0008550FAA0BE0E8FEEF48
:100E000016161706E807F907C0F012161306E407CE
:100E1000F50798F0621B730B840B950B39F40A26C7
:100E200061F0232B242B252B21F408950A2609F4A5
:100E3000A140A6958FEF811D811D089597F99F67A9
:100E400080E870E060E008959FEF80EC0895002452
:100E50000A941616170618060906089500240A941F
:100E600012161306140605060895092E0394000CA5
:100E700011F4882352F0BB0F40F4BF2B11F460FF34
:100E800004C06F5F7F4F8F4F9F4F089557FD90585D
:100E9000440F551F59F05F3F71F04795880F97FB3E
:100EA000991F61F09F3F79F08795089512161306F8
:100EB0001406551FF2CF4695F1DF08C01616170627
:100EC0001806991FF1CF869571056105089408955C
:100ED000E894BB2766277727CB0197F908950E94EE
:100EE000FA0608F48FEF08950E9487070C943507DF
:100EF0000E94270738F00E942E0720F0952311F05A
:100F00000C941E070C94240711240C9469070E946A
:100F1000460770F3959FC1F3950F50E0551F629FF0
:100F2000F001729FBB27F00DB11D639FAA27F00D42
:100F3000B11DAA1F649F6627B00DA11D661F829F69
:100F40002227B00DA11D621F739FB00DA11D621F4E
:100F5000839FA00D611D221F749F3327A00D611D6B
:100F6000231F849F600D211D822F762F6A2F11244D
:100F70009F5750409AF0F1F088234AF0EE0FFF1F80
:100F8000BB1F661F771F881F91505040A9F79E3FD7
:100F9000510580F00C941E070C9469075F3FE4F341
:100FA000983ED4F3869577956795B795F795E7952D
:100FB0009F5FC1F7FE2B880F911D9695879597F936
:060FC0000895F894FFCF34
:100FC60000000000B601160143010302740152013C
:020FD6006601B2
:00000001FF
