:020000040000FA
:100000000C945E000C9486000C9486000C94860080
:100010000C9486000C9486000C9486000C94860048
:100020000C9486000C9486000C9486000C94860038
:100030000C9486000C9486000C9486000C94860028
:100040000C94C1020C9486000C9431030C940B03A5
:100050000C9486000C9486000C9486000C94860008
:100060000C9486000C948600000000080002010039
:100070000003040700000000000000000000000072
:10008000250028002B0000000000240027002A0083
:10009000040404040404040402020202020203032E
:1000A0000303030301020408102040800102040836
:1000B00010200102040810206303100511241FBE44
:1000C000CFEFD8E0DEBFCDBF22E0A0E7B1E001C0B6
:1000D0001D92A032B207E1F711E0A0E0B1E0ECEB35
:1000E000FEE002C005900D92A037B107D9F710E0ED
:1000F000CDE5D0E004C02197FE010E945005CC352B
:10010000D107C9F70E94D7030C9451070C94000043
:1001100090E0FC01EC55FF4F249180579F4FFC016C
:100120008491882399F090E0880F991FFC01EA5789
:10013000FF4FA591B491FC01E458FF4F8591949134
:100140008FB7F894EC91E22BEC938FBF089590E079
:10015000FC01E859FF4F2491FC01EC55FF4F34910D
:10016000FC01E057FF4FE491EE23C9F0222339F060
:10017000233001F1A8F4213019F1223029F1F0E007
:10018000EE0FFF1FE458FF4FA591B4918FB7F8947D
:10019000EC91611126C030953E233C938FBF0895AA
:1001A0002730A9F02830C9F0243049F78091800029
:1001B0008F7D03C0809180008F7780938000DFCF98
:1001C00084B58F7784BDDBCF84B58F7DFBCF8091E5
:1001D000B0008F778093B000D2CF8091B0008F7D38
:1001E000F9CF3E2BDACF3FB7F8948091750190910B
:1001F0007601A0917701B091780126B5A89B05C042
:100200002F3F19F00196A11DB11D3FBFBA2FA92F95
:10021000982F8827BC01CD01620F711D811D911D92
:1002200042E0660F771F881F991F4A95D1F70895FE
:100230008F929F92AF92BF92CF92DF92EF92FF92F6
:100240000E94F3004B015C0188E8C82E83E1D82EA0
:10025000E12CF12C0E94F300681979098A099B09A5
:10026000683E734081059105A8F321E0C21AD108C8
:10027000E108F10888EE880E83E0981EA11CB11CED
:10028000C114D104E104F10429F7FF90EF90DF904D
:10029000CF90BF90AF909F908F900895AF92BF92F4
:1002A000CF92DF92EF92FF920F931F93CF93DF9342
:1002B0006C017B018B01040F151FEB015E01AE1871
:1002C000BF08C017D10759F06991D601ED91FC9193
:1002D0000190F081E02DC6010995892B79F7C501C0
:1002E000DF91CF911F910F91FF90EF90DF90CF9012
:1002F000BF90AF900895FC01538D448D252F30E0C1
:10030000842F90E0821B930B541710F0CF96089522
:1003100001970895FC01918D828D981761F0A28D4F
:10032000AE0FBF2FB11D5D968C91928D9F5F9F7315
:10033000928F90E008958FEF9FEF0895FC01918DCB
:10034000828D981731F0828DE80FF11D858D90E038
:1003500008958FEF9FEF0895FC01918D228D892FD5
:1003600090E0805C9F4F821B91098F7399270895BD
:1003700089E791E00E94AC0121E0892B09F420E09B
:10038000822F089580E090E0892B29F00E94B80127
:1003900081110C9400000895FC01A48DA80FB92FC1
:1003A000B11DA35ABF4F2C91848D90E001968F739D
:1003B0009927848FA689B7892C93A089B1898C91BC
:1003C000837080648C93938D848D981306C002880B
:1003D000F389E02D80818F7D80830895EF92FF92D5
:1003E0000F931F93CF93DF93EC0181E0888F9B8D58
:1003F0008C8D98131AC0E889F989808185FF15C012
:100400009FB7F894EE89FF896083E889F989808134
:100410008370806480839FBF81E090E0DF91CF9103
:100420001F910F91FF90EF900895F62E0B8D10E025
:100430000F5F1F4F0F731127E02E8C8D8E110CC094
:100440000FB607FCFACFE889F989808185FFF5CFDF
:10045000CE010E94CC01F1CFEB8DEC0FFD2FF11DF1
:10046000E35AFF4FF0829FB7F8940B8FEA89FB891C
:1004700080818062CFCFCF93DF93EC01888D88237A
:10048000B9F0AA89BB89E889F9898C9185FD03C0F7
:10049000808186FD0DC00FB607FCF7CF8C9185FFDC
:1004A000F2CF808185FFEDCFCE010E94CC01E9CF54
:1004B000DF91CF91089542E050E068E171E089E773
:1004C00091E00C944E01CF93DF93FC01019000204A
:1004D000E9F73197AF01481B590BBC0189E791E05F
:1004E0000E944E01EC010E945B028C0F9D1FDF9168
:1004F000CF910895CF93DF93EC01809116029091F4
:100500001702009759F020911802309119022C1708
:100510003D0720F081E0DF91CF910895BE016F5F2C
:100520007F4F0E947B06009789F09093170280937B
:100530001602D0931902C093180220911A0230912A
:100540001B02232B39F7FC011082E4CF80E0E3CFBC
:1005500020911A0230911B02232B39F421E0FC0177
:100560008081882361F020E00AC0BC0180911602DE
:10057000909117020E94410721E0892BA1F7822F59
:1005800008951F920F920FB60F9211242F933F934D
:100590008F939F93AF93BF9380917101909172015C
:1005A000A0917301B09174013091700123E0230F89
:1005B0002D3758F50196A11DB11D20937001809330
:1005C000710190937201A0937301B09374018091B3
:1005D000750190917601A0917701B0917801019613
:1005E000A11DB11D8093750190937601A0937701B1
:1005F000B0937801BF91AF919F918F913F912F91CF
:100600000F900FBE0F901F90189526E8230F0296AB
:10061000A11DB11DD2CF1F920F920FB60F921124C0
:100620002F933F934F935F936F937F938F939F93FA
:10063000AF93BF93EF93FF9389E791E00E94CC01C2
:10064000FF91EF91BF91AF919F918F917F916F91AA
:100650005F914F913F912F910F900FBE0F901F9080
:1006600018951F920F920FB60F9211242F938F930C
:100670009F93EF93FF93E0918901F0918A0180812C
:10068000E0918F01F091900182FD1BC090818091DB
:1006900092018F5F8F7320919301821741F0E09157
:1006A0009201F0E0E758FE4F958F80939201FF9101
:1006B000EF919F918F912F910F900FBE0F901F90F0
:1006C00018958081F4CF10927C0110927B0188EE06
:1006D00093E0A0E0B0E080937D0190937E01A09331
:1006E0007F01B09380018AE091E090937A0180933A
:1006F000790185EC90E0909386018093850184ECEC
:1007000090E0909388018093870180EC90E0909333
:100710008A018093890181EC90E090938C01809311
:100720008B0182EC90E090938E0180938D0186EC9A
:1007300090E09093900180938F011092920110921B
:100740009301109294011092950110921702109249
:100750001602109219021092180210921B021092A7
:100760001A0290E080E00E947A02209116023091F5
:100770001702811113C02115310519F0C9010E941A
:10078000F205109217021092160210921B0210929C
:100790001A021092190210921802089510921B0268
:1007A00010921A026AE171E0C9010C944A07CF93D2
:1007B000DF9300D0CDB7DEB7789484B5826084BD76
:1007C00084B5816084BD85B5826085BD85B5816055
:1007D00085BD80916E00816080936E0010928100D3
:1007E000809181008260809381008091810081608E
:1007F000809381008091800081608093800080914F
:10080000B10084608093B1008091B00081608093DA
:10081000B00080917A00846080937A0080917A00A1
:10082000826080937A0080917A00816080937A0060
:1008300080917A00806880937A001092C100E091E4
:100840008901F0918A0182E08083E0918501F09135
:1008500086011082E0918701F09188018FEC8083FE
:1008600010929101E0918D01F0918E0186E08083DC
:10087000E0918B01F0918C01808180618083E09117
:100880008B01F0918C01808188608083E0918B01E5
:10089000F0918C01808180688083E0918B01F091E0
:1008A0008C0180818F7D80838BE191E00E946302C7
:1008B00088E00E94880089E00E94880080E0C82EBD
:1008C00080E0D82E89E791E00E94AC011816190645
:1008D0000CF09AC089E791E00E948A01182F682FD6
:1008E00089E791E00E94EE010E945B021B3309F050
:1008F00040C082E391E00E94A802882351F061E0A9
:1009000088E00E94A7000E9418018DE391E00E94F8
:1009100063028FE291E00E94A802882351F060E018
:1009200088E00E94A7000E9418018AE391E00E94DB
:10093000630282E591E00E94A802882351F061E001
:1009400089E00E94A7000E9418018DE591E00E94B5
:1009500063028FE491E00E94A802882351F060E0D6
:1009600089E00E94A7000E9418018AE591E00E9498
:10097000630219831A82E0901A02F0901B028FEF33
:10098000E81AF80AC7010E947A02882399F0209198
:1009900016023091170280911A0290911B02BE013B
:1009A0006F5F7F4F820F931F0E944A07F0921B02D6
:1009B000E0921A021B3309F085CF90E080E00E949C
:1009C0007A022091160230911702811113C021156D
:1009D000310519F0C9010E94F20510921702109218
:1009E000160210921B0210921A0210921902109213
:1009F000180268CF10921B0210921A026AE171E08D
:100A0000C9010E944A075ECFC114D10409F45ACF2C
:100A10000E94B801882309F455CF0E94000052CFEC
:100A20008091160290911702009711F00C94F20534
:100A300008952F923F924F925F926F927F928F9282
:100A40009F92AF92BF92CF92DF92EF92FF920F935D
:100A50001F93CF93DF93CDB7DEB7CA1BDB0B0FB667
:100A6000F894DEBF0FBECDBF09942A883988488824
:100A70005F846E847D848C849B84AA84B984C884BA
:100A8000DF80EE80FD800C811B81AA81B981CE0FB1
:100A9000D11D0FB6F894DEBF0FBECDBFED01089596
:100AA000EE0FFF1F0590F491E02D09940F931F9313
:100AB000CF93DF938230910510F482E090E0E091D3
:100AC0001E02F0911F0230E020E0B0E0A0E030977D
:100AD00099F42115310509F44AC0281B390B24303B
:100AE0003105D8F58A819B816115710589F1FB017A
:100AF00093838283FE0111C0408151810281138161
:100B000048175907E0F04817590799F4109761F012
:100B100012960C93129713961C933296CF01DF9185
:100B2000CF911F910F91089500931E0210931F0201
:100B3000F4CF2115310551F04217530738F0A901C0
:100B4000DB019A01BD01DF01F801C1CFEF01F9CF4F
:100B500090931F0280931E02CDCFFE01E20FF31F80
:100B6000819391932250310939832883D7CF2091E3
:100B70001C0230911D02232B41F42091020130917F
:100B8000030130931D0220931C022091000130913B
:100B900001012115310541F42DB73EB74091040103
:100BA00050910501241B350BE0911C02F0911D02B0
:100BB000E217F307A0F42E1B3F0B2817390778F034
:100BC000AC014E5F5F4F2417350748F04E0F5F1F93
:100BD00050931D0240931C02819391939FCFF0E0AC
:100BE000E0E09CCFCF93DF930097E9F0FC013297D0
:100BF00013821282A0911E02B0911F02ED0130E01B
:100C000020E01097A1F420813181820F931F209161
:100C10001C0230911D022817390709F061C0F093BA
:100C20001D02E0931C02DF91CF910895EA01CE17D7
:100C3000DF07E8F54A815B819E0141155105B1F757
:100C4000E901FB83EA8349915991C40FD51FEC1741
:100C5000FD0761F4808191810296840F951FE9015F
:100C600099838883828193819B838A83F0E0E0E08B
:100C700012968D919C9113970097B9F52D913C9107
:100C80001197CD010296820F931F20911C02309183
:100C90001D022817390739F6309751F510921F02B7
:100CA00010921E02B0931D02A0931C02BCCFD383EE
:100CB000C28340815181840F951FC817D90761F401
:100CC0004E5F5F4F88819981480F591F5183408340
:100CD0008A819B81938382832115310509F0B0CFEE
:100CE000F0931F02E0931E029ECFFD01DC01C0CFF6
:100CF00013821282D7CFB0E0A0E0E1E8F6E00C94D6
:100D00001B058C01009751F4CB010E9456058C0104
:100D1000C801CDB7DEB7E0E10C943705FC01E60F62
:100D2000F71F9C0122503109E217F30708F49DC018
:100D3000D901CD91DC911197C617D70798F0C5302E
:100D4000D10530F3CE0104978617970708F3C61B29
:100D5000D70B2297C193D1936D937C93CF010E94BF
:100D6000F205D6CF5B01AC1ABD0A4C018C0E9D1E5C
:100D7000A0911E02B0911F02512C412CF12CE12CAC
:100D8000109731F580911C0290911D0288159905EC
:100D900009F05CC04616570608F058C08091000163
:100DA00090910101009741F48DB79EB740910401E5
:100DB00050910501841B950BE817F90708F055C001
:100DC000F0931D02E0931C02F90171836083A0CFB0
:100DD0008D919C91119712966C90129713967C901E
:100DE0001397A815B90559F56C0142E0C40ED11C42
:100DF000CA14DB0420F1AC014A195B09DA0112962E
:100E0000159780F06282738251834083D9016D937C
:100E10007C93E114F10471F0D7011396FC93EE93E7
:100E2000129776CF22968C0F9D1FF90191838083B4
:100E3000F301EFCFF0931F02E0931E0269CF481633
:100E4000590608F42C017D01D3019ACFCB010E94F1
:100E500056057C01009749F0AE01B8010E943807A1
:100E6000C8010E94F205870153CF10E000E050CF87
:100E7000FB01DC0102C001900D9241505040D8F7B7
:100E80000895FB01DC018D91019080190110D9F3C7
:100E9000990B0895FB01DC0101900D920020E1F710
:100EA000089510E0CDE5D0E004C0FE010E94500599
:100EB0002196CE35D107C9F7F894FFCF0000200264
:100EC000800000000000EE014E017B013B02AC01FE
:100ED0008A019E010D0A00426C756574686F6F741B
:100EE00020436F6E65637461646F006465736C6941
:100EF0006761203031006465736C6967612030314F
:100F00002065786563757461646F006465736C69EE
:100F10006761203032006465736C6967612030322C
:0C0F20002065786563757461646F0000E3
:107E0000112484B714BE81FFF0D085E080938100F7
:107E100082E08093C00088E18093C10086E0809377
:107E2000C20080E18093C4008EE0C9D0259A86E02C
:107E300020E33CEF91E0309385002093840096BBD3
:107E4000B09BFECF1D9AA8958150A9F7CC24DD24C4
:107E500088248394B5E0AB2EA1E19A2EF3E0BF2EE7
:107E6000A2D0813461F49FD0082FAFD0023811F036
:107E7000013811F484E001C083E08DD089C08234E0
:107E800011F484E103C0853419F485E0A6D080C0E4
:107E9000853579F488D0E82EFF2485D0082F10E0AE
:107EA000102F00270E291F29000F111F8ED06801E7
:107EB0006FC0863521F484E090D080E0DECF843638
:107EC00009F040C070D06FD0082F6DD080E0C81688
:107ED00080E7D80618F4F601B7BEE895C0E0D1E017
:107EE00062D089930C17E1F7F0E0CF16F0E7DF06D8
:107EF00018F0F601B7BEE89568D007B600FCFDCFD4
:107F0000A601A0E0B1E02C9130E011968C91119780
:107F100090E0982F8827822B932B1296FA010C0160
:107F200087BEE89511244E5F5F4FF1E0A038BF0790
:107F300051F7F601A7BEE89507B600FCFDCF97BE46
:107F4000E89526C08437B1F42ED02DD0F82E2BD052
:107F50003CD0F601EF2C8F010F5F1F4F84911BD097
:107F6000EA94F801C1F70894C11CD11CFA94CF0C13
:107F7000D11C0EC0853739F428D08EE10CD085E9AC
:107F80000AD08FE07ACF813511F488E018D01DD067
:107F900080E101D065CF982F8091C00085FFFCCF94
:107FA0009093C60008958091C00087FFFCCF809118
:107FB000C00084FD01C0A8958091C6000895E0E648
:107FC000F0E098E1908380830895EDDF803219F02E
:107FD00088E0F5DFFFCF84E1DECF1F93182FE3DFCA
:107FE0001150E9F7F2DF1F91089580E0E8DFEE27F6
:047FF000FF270994CA
:027FFE00040479
:00000001FF
